:060000000A128A11FC2F18
:100F4A00831603130614061683160317091289114A
:100F5A00831603130711831203131708F0390C3889
:100F6A00970080308316031392008312031312082A
:100F7A00FC3902389200121540309500831203138F
:100F8A00061C061ACB2F15089500EE2F061CDD2F1E
:100F9A0015080D3E95000330F2000830F100783054
:100FAA00F000F00BD62FF10BD62FF20BD62FEE2F27
:100FBA00061EEE2F1508F33E95000330F2000830A6
:100FCA00F1007830F000F00BE82FF10BE82FF20B6C
:100FDA00E82F0230F2000430F100BA30F000F00BD2
:100FEA00F42FF10BF42FF20BF42F0000C32F83011F
:060FFA000A128A11A52F66
:00000001FF
