:100000000A128A11FC2F00308A000408840A820731
:100010000034543445344D34503445345234413432
:0C00200054345534523441343A34003426
:1007E400F20072088312031386000810881008159B
:1007F4002130F1007630F000F00BFE2BF10BFE2BD4
:1008040000008312031308110800F2007208831217
:10081400031386000814881008152130F10076307F
:10082400F000F00B132CF10B132C000083120313B4
:100834000811080038300A128A11F2230A128A11A8
:1008440006300A128A11F2230A128A110C300A1293
:100854008A11F2230A128A1101300A128A11F22330
:100864000800FD01F91F3D2CF809F909F80A0319DC
:10087400F90AFD01FD0A7808F0007908F100F20197
:100884008E30FB007B08F3007D08FC007C08F4003C
:100894000A128A1120257008F8007108F9007208FC
:1008A400FA000800F500F601F7017708803AF40031
:1008B40080307402031D602C73087602031808004C
:1008C4007608750784000A128A1103200A128A1115
:1008D4000A128A1107240A128A110130F607031832
:1008E400F70A0030F707572CF601F31F802CF209A2
:1008F400F309F20A0319F30AF601F60AF11F872C29
:10090400F009F109F00A0319F10A710870040319D6
:10091400B42CF501F50AF11B9B2C01300310F00DEA
:10092400F10DFF3E031D902C0130F4007408F5070F
:100934008D2C71087302031DA12C70087202031C14
:10094400A92C7008F2027108031CF303F3020130AE
:100954000310F10CF00CFF3E031DAA2C0130F5022C
:10096400031D9B2C76080319BC2CF209F309F20A27
:100974000319F30A7308F101F1077208F001F00793
:10098400080083120313A601A11FCF2CA009A109FB
:10099400A00A0319A10AA601A60AA31FDA2CA20918
:1009A400A309A20A0319A30A0130A4002408A60675
:1009B400A701A801210820040319112DA501A50AE6
:1009C400A11BF02C01300310A00DA10DFF3E031D4F
:1009D400E52C0130A4002408A507E22C0130031003
:1009E400A70DA80DFF3E031DF12C21082302031DB2
:1009F400FD2C20082202031C062D2008A202210837
:100A0400031CA303A302271401300310A10CA00CA0
:100A1400FF3E031D072D0130A502031DF02C2608FF
:100A24000319192DA709A809A70A0319A80A280850
:100A3400A101A1072708A001A00708007308031952
:100A4400282D720871047004031D3B2D0030F00042
:100A54000030F1000030F20008000130F5007508A4
:100A6400F30701300310F20CF10CF00CFF3E031DF0
:100A7400342DFE3072050319562D2F2D0130F5004B
:100A84007508F3070130F007003003180130F1074F
:100A9400003003180130F20701300310F20CF10C9E
:100AA400F00CFF3E031D4F2DFF3072050319652D19
:100AB400402D0130F30201300310F00DF10DF20D61
:100AC400FF3E031D5E2DF11F5B2D73186F2DFF304C
:100AD400F0057F30F105FF30F2050310F30C7308C5
:100AE400F500F601F70110300310F50DF60DF70DC2
:100AF400FF3E031D762D7508F0047608F10477088F
:100B0400F204740803190800F21708007008F400CE
:100B14007108F5007208F6000310750D760DF700E4
:100B24007708FD00FD08031DA02D0030F300003000
:100B3400F2000030F1000030F00008007008F4000A
:100B44007108F5007208F60017300310F60CF50C66
:100B5400F40CFF3E031DA72D7408F7007708F80076
:100B6400F117FF30F005FF30F1050030F205700891
:100B7400F9007108FA007208FB00FC018E30FD02D6
:100B8400FD1FE22D7D08803A8F3E0318D22D0030E0
:100B9400F3000030F2000030F1000030F0000800F3
:100BA40001300310FC0CFB0CFA0CF90CFF3E031D86
:100BB400D32D0130F4007408FD070319FD2DD22D47
:100BC40018307D02031CFA2D0030F3000030F200CF
:100BD4000030F1000030F00008000130F400031090
:100BE400F90DFA0DFB0DFC0DF40BF12D0130FD0296
:100BF400FD08031DEF2D780803190B2EF909FA09D6
:100C0400FB09FC09F90A0319FA0A0319FB0A031977
:100C1400FC0A7C08F3007B08F2007A08F1007908EA
:100C2400F0000800831203132008A6002108A7007F
:100C34002208A8000310270D280DA9002908AA00DE
:100C4400AA08031D2C2E0030A0000030A1000030A3
:100C5400A20008002308A6002408A7002508A8006D
:100C64000310270D280DA9002908AF00AF08031DA4
:100C7400422E0030A0000030A1000030A200080085
:100C84002F087B3EA6002608AA072008A6002108F4
:100C9400A7002208A80010300310A80CA70CA60C6B
:100CA400FF3E031D4E2E2608A9002908AF00230885
:100CB400A6002408A7002508A80010300310A80CDB
:100CC400A70CA60CFF3E031D602E2608A9002908C8
:100CD400AF068030A6002608AF05A117A417FF3081
:100CE400A305FF30A4050030A5050030AB0000309B
:100CF400AC000030AD000730A6002608AE00201C72
:100D0400912E2308AB07240803110318240A031D9A
:100D1400AC07250803110318250A031DAD0701308C
:100D24000310A20CA10CA00CFF3E031D922E013057
:100D34000310A30DA40DA50DFF3E031D9A2E013033
:100D4400AE02031D812E0930A6002608AE00201C29
:100D5400B92E2308AB07240803110318240A031D22
:100D6400AC07250803110318250A031DAD0701303C
:100D74000310A20CA10CA00CFF3E031DBA2E0130DF
:100D84000310AD0CAC0CAB0CFF3E031DC22E0130A6
:100D9400AE02031DA92E2B08F0002C08F1002D082B
:100DA400F2002A08A6002608F3002F08A700270847
:100DB400F4000A128A112025700883120313A0007C
:100DC4007108A1007208A200080083160313051419
:100DD40008108810081186019F179F121F12831292
:100DE40003131F083F3940389F00C3309F051F1469
:100DF4000A128A111C240A128A1180300A128A11DA
:100E0400F2230A128A110C3083120313B000300843
:100E1400F30001300A128A1154240A128A1183122F
:100E240003139F149F18142F1E08B201B2078316D0
:100E340003131E0883120313B101B1070030A0008D
:100E4400FA30A1003E30A2003208F901F907310856
:100E5400F801F8070A128A1133240A128A11780851
:100E640083120313A3007908A4007A08A5000A12C8
:100E74008A1114260A128A11831203132008B3005C
:100E84002108B4002208B500C0300A128A11F223E6
:100E94000A128A11643083120313A0000030A100E7
:100EA4003308F0003408F1003508F2000A128A1100
:100EB40088250A128A11710883120313A301A30758
:100EC4007008A201A2070A128A11C3240A128A1105
:100ED400831203132108B701B7072008B601B60728
:100EE4000A30F0000030F1003708F301F307360848
:100EF400F201F2070A128A1176240A128A11700882
:100F0400303E0A128A1107240A128A110A30831207
:100F14000313A0000030A1003308F0003408F100EE
:100F24003508F2000A128A1188250A128A117108FA
:100F340083120313A301A3077008A201A2070A12D4
:100F44008A11C3240A128A11831203132108B701D8
:100F5400B7072008B601B6070A30F0000030F100E8
:100F64003708F301F3073608F201F2070A128A116F
:100F740076240A128A117008303E0A128A11072454
:100F84000A128A11831203133308F0003408F100A3
:100F94003508F2000A128A1188250A128A1171088A
:100FA40083120313B701B7077008B601B6070A30F6
:100FB400F0000030F1003708F301F3073608F201BE
:100FC400F2070A128A1176240A128A117008303E36
:100FD4000A128A1107240A128A1120300A128A116D
:100FE40007240A128A1143300A128A1107240A12AA
:0C0FF4008A11112F83010A128A11E72EC6
:02400E00F7FFBA
:00000001FF
