:100000000A128A11FC2F00308A000408840A820731
:1000100000344B34453459345034413444343A3448
:020020000034AA
:100D860038300A128A11F3260A128A1106300A121C
:100D96008A11F3260A128A110C300A128A11F326D6
:100DA6000A128A1101300A128A11F3260800F3008A
:100DB6007308831203138600071487100715023081
:100DC600F2004530F100A930F000F00BE82EF10BEF
:100DD600E82EF20BE82EEF2E8312031307110800FC
:100DE600F300730883120313860007108710071594
:100DF6000230F2004530F100A930F000F00B012F6F
:100E0600F10B012FF20B012F082F83120313071189
:100E16000800F600F701F8017808803AF5008030FE
:100E26007502031D182F7408770203180800770847
:100E3600760784000A128A1103200A128A110A12FE
:100E46008A11DA260A128A110130F7070318F80AFE
:100E56000030F8070F2F83160313071087100711AA
:100E66008601F03088000A128A11C3260A128A11F6
:100E760080300A128A11F3260A128A110730F90005
:100E86007908F40001300A128A110C270A128A1115
:100E9600C0300A128A11F3260A128A110A128A111E
:100EA60057270A128A11512F831203130814881028
:100EB6000811081E692F31300A128A11DA260A1221
:100EC6008A1183120313081E8F2F642F881E762F14
:100ED60034300A128A11DA260A128A11831203138F
:100EE600881E8F2F712F081F832F37300A128A1101
:100EF600DA260A128A1183120313081F8F2F7E2FF8
:100F0600881F8F2F2A300A128A11DA260A128A11AE
:100F160083120313881B8B2F081088140811081ED0
:100F26009F2F32300A128A11DA260A128A11831288
:100F36000313081EC52F9A2F881EAC2F35300A12B0
:100F46008A11DA260A128A1183120313881EC52F04
:100F5600A72F081FB92F38300A128A11DA260A126B
:100F66008A1183120313081FC52FB42F881FC52F9C
:100F760030300A128A11DA260A128A1183120313F2
:100F8600881BC12F081088100815081ED52F33306E
:100F96000A128A11DA260A128A1183120313081E0C
:100FA6000800D02F881EE22F36300A128A11DA2660
:100FB6000A128A1183120313881E0800DD2F081FE8
:100FC600EF2F39300A128A11DA260A128A11831291
:100FD6000313081F0800EA2F881F080023300A128F
:100FE6008A11DA260A128A1183120313881F08004F
:0A0FF600F72F83010A128A112E2F33
:02400E00F7FFBA
:00000001FF
