:060000000A128A11FC2F18
:100E0A0083160313860187018312031386011830A0
:100E1A0087000330F2008A30F1005630F000F00B00
:100E2A00142FF10B142FF20B142F1B2F3F308312A8
:100E3A0003138600423087000330F2008A30F10043
:100E4A005630F000F00B272FF10B272FF20B272F2C
:100E5A002E2FCF30831203138600183087000330F9
:100E6A00F2008A30F1005630F000F00B3A2FF10B05
:100E7A003A2FF20B3A2F412FCC30831203138600FC
:100E8A00813087000330F2008A30F1005630F000DA
:100E9A00F00B4D2FF10B4D2FF20B4D2F542F3330FA
:100EAA00831203138600423087000330F2008A302F
:100EBA00F1005630F000F00B602FF10B602FF20BAF
:100ECA00602F672FF33083120313860008308700E0
:100EDA000330F2008A30F1005630F000F00B732F25
:100EEA00F10B732FF20B732F7A2FF0308312031347
:100EFA00860087010330F2008A30F1005630F00094
:100F0A00F00B852FF10B852FF20B852F8C2F831277
:100F1A0003138601183087000330F2008A30F1008B
:100F2A005630F000F00B972FF10B972FF20B972FFB
:100F3A009E2FF03083120313860087010330F200DC
:100F4A008A30F1005630F000F00BA92FF10BA92FCF
:100F5A00F20BA92FB02FF330831203138600083047
:100F6A0087000330F2008A30F1005630F000F00BAF
:100F7A00BC2FF10BBC2FF20BBC2FC32F8312031310
:100F8A008601453087000330F2008A30F10056307E
:100F9A00F000F00BCE2FF10BCE2FF20BCE2FD52F68
:100FAA00C030831203138600243087000330F20016
:100FBA008A30F1005630F000F00BE12FF10BE12FEF
:100FCA00F20BE12FE82FCF3083120313860018307B
:100FDA0087000330F2008A30F1005630F000F00B3F
:100FEA00F42FF10BF42FF20BF42FFB2F092F8301AF
:060FFA000A128A11052F06
:00000001FF
