:060000000A128A11122809
:10000800FE00030EF3000408F4000A08F50083124A
:1000180003137F08F6000A128A1138290A128A1176
:10002800152883010A128A111928831603138701D8
:100038000614861083160317091283160313011773
:100048008B170B168B103F30831203138700033076
:10005800A2008A30A1005630A000A00B3128A10BC5
:100068003128A20B31283828063083120313870061
:100078000330A2008A30A1005630A000A00B42280D
:10008800A10B4228A20B422849285B308312031394
:1000980087000330A2008A30A1005630A000A00BD0
:1000A8005328A10B5328A20B53285A284F308312E8
:1000B800031387000330A2008A30A1005630A00045
:1000C800A00B6428A10B6428A20B64286B28663057
:1000D8008312031387000330A2008A30A100563030
:1000E800A000A00B7528A10B7528A20B75287C28E9
:1000F8006D308312031387000330A2008A30A100F9
:100108005630A000A00B8628A10B8628A20B8628B3
:100118008D287D308312031387000330A2008A30B4
:10012800A1005630A000A00B9728A10B9728A20B7E
:1001380097289E2807308312031387000330A200F4
:100148008A30A1005630A000A00BA828A10BA8282F
:10015800A20BA828AF287F3083120313870003302F
:10016800A2008A30A1005630A000A00BB928A10B2C
:10017800B928A20BB928C028673083120313870057
:100188000330A2008A30A1005630A000A00BCA2874
:10019800A10BCA28A20BCA28D128773083120313CF
:1001A80087000330A2008A30A1005630A000A00BBF
:1001B800DB28A10BDB28A20BDB28E2287C3083128A
:1001C800031387000330A2008A30A1005630A00034
:1001D800A00BEC28A10BEC28A20BEC28F328393053
:1001E8008312031387000330A2008A30A10056301F
:1001F800A000A00BFD28A10BFD28A20BFD280429B7
:100208005E308312031387000330A2008A30A100F6
:100218005630A000A00B0E29A10B0E29A20B0E2907
:10022800152979308312031387000330A2008A301E
:10023800A1005630A000A00B1F29A10B1F29A20B5B
:100248001F29262971308312031387000330A20067
:100258008A30A1005630A000A00B3029A10B30290C
:10026800A20B3029372927288B1C5B2983120313FB
:1002780086140330F2008A30F1005630F000F00B9B
:100288004329F10B4329F20B43294A29831203130B
:1002980086100330F2008A30F1005630F000F00B7F
:1002A8005329F10B5329F20B53295A293A29760875
:1002B80083120313FF0075088A0074088400730E04
:0802C8008300FE0E7E0E09000A
:00000001FF
