:060000000A128A11FC2F18
:100F6E00831603130610861083120313061406301D
:100F7E00F2001330F100B130F000F00BC42FF10B82
:100F8E00C42FF20BC42FCB2F8312031386140630FB
:100F9E00F2001330F100B130F000F00BD42FF10B52
:100FAE00D42FF20BD42FDB2F83120313061006302F
:100FBE00F2001330F100B130F000F00BE42FF10B22
:100FCE00E42FF20BE42FEB2F83120313861006305F
:100FDE00F2001330F100B130F000F00BF42FF10BF2
:100FEE00F42FF20BF42FFB2FBB2F83010A128A1161
:020FFE00B72F0B
:00000001FF
