:060000000A128A11FC2F18
:100F54008312031393018C1DAD2F1308080070082E
:100F64008312031393008316031314180800B52F78
:100F740083160313871107168712081083120313AD
:100F840094161412F0309405831603139413141357
:100F94008312031308100830F0000030F1000A1225
:100FA4008A11B1270A128A11831203130814033019
:100FB400F4008A30F3005630F200F20BDF2FF30B0B
:100FC400DF2FF40BDF2FE62F0A128A11AA270A1249
:100FD4008A11F2007208F5000330F4008A30F3003D
:100FE4005630F200F20BF42FF30BF42FF40BF42F22
:0C0FF400FB2FCA2F83010A128A11BA2FAA
:00000001FF
