:060000000A128A11FC2F18
:100F440083160313051486019F179F121F12831221
:100F540003131F083F3940389F00C3309F051F14F7
:100F64000830F000F00BB42F831203139F149F1862
:100F7400B92F1E08F201F207831603131E08F101AC
:100F8400F1077208803AFF0080307F02031DCC2FE6
:100F9400CD3071020318D02F0130F82F7208803A37
:100FA400FF0081307F02031DD92F9A30710203188C
:100FB400DD2F0330F82F7208803AFF0082307F0261
:100FC400031DE62F673071020318EA2F0730F82F4C
:100FD4007208803AFF0083307F02031DF32F343000
:100FE40071020318F72F0F30F82F1F3083120313E9
:0C0FF4008600B22F83010A128A11A22F7E
:00000001FF
