:060000000A128A11F02F24
:100F46003F3406345B344F3466346D347D340734B5
:100F56007F34673477347C3439345E347934713491
:100F66007E088A007F088200B3270A128A11800051
:100F7600840A04087D0603190034FF0A0319FE0AD1
:100F8600B72F831603138601F301F4017408803A20
:100F9600FF0080307F02031DD22F1030730203182A
:100FA600C72F7308203E840083130008831203139F
:100FB60086000330F2008A30F1005630F000F00B64
:100FC600E22FF10BE22FF20BE22FE92F0130F307AC
:100FD6000318F40A0030F407C92F83133030FD00DC
:100FE6000730FE00A330FF00203084000A128A1169
:0A0FF600B72783010A128A11C42FE5
:00000001FF
