:100000000A128A11FC2F00308A000408840A820731
:100010000034443461346E34693465346C342034D3
:100020004C346534793476346134003445346D347D
:10003000623465346234693464346F3473343A340E
:0200400000348A
:100E3E0002300A128A118A270A128A1128300A12DF
:100E4E008A118A270A128A1106300A128A118A27F3
:100E5E000A128A110C300A128A118A270A128A1172
:100E6E0001300A128A118A270800F800F601F701EC
:100E7E007708803AF50080307502031D482F7408FC
:100E8E007602031808007608780784000A128A1181
:100E9E0003200A128A110A128A11C3270A128A1112
:100EAE000130F6070318F70A0030F7073F2F8316B5
:100EBE00031308108810081186010A128A111F27C1
:100ECE000A128A1180300A128A118A270A128A118E
:100EDE000A30F9007908F4000E300A128A113C2704
:100EEE000A128A11C0300A128A118A270A128A112E
:100EFE000D30F9007908F40001300A128A113C27EE
:100F0E000A128A11692FF3007308F0398312031342
:100F1E0086000810881008150230F2004530F100E6
:100F2E00A930F000F00B992FF10B992FF20B992F9E
:100F3E00A02F8312031308117308F000033003105F
:100F4E00F00DFF3E031DA62F0310700DF039860025
:100F5E000810881008150230F2004530F100A93053
:100F6E00F000F00BB82FF10BB82FF20BB82FBF2FEC
:100F7E008312031308110800F3007308F03983126B
:100F8E00031386000814881008150230F20045304D
:100F9E00F100A930F000F00BD22FF10BD22FF20B93
:100FAE00D22FD92F8312031308117308F0000330C8
:100FBE000310F00DFF3E031DDF2F0310700DF039EF
:100FCE0086000814881008150230F2004530F10032
:100FDE00A930F000F00BF12FF10BF12FF20BF12FE6
:100FEE00F82F831203130811080083010A128A11C5
:020FFE005E2F64
:02400E00F7FFBA
:00000001FF
