:060000000A128A11F02F24
:100D6C003F3406345B344F3466346D347D34073491
:100D7C007F3467347E088A007F088200C0260A12FE
:100D8C008A118000840A04087D0603190034FF0AC6
:100D9C000319FE0AC42EF601F11FDB2EF009F1092E
:100DAC00F00A0319F10AF601F60AF31FE62EF2090E
:100DBC00F309F20A0319F30A0130F4007408F60679
:100DCC00F701F8017108700403191D2FF501F50ADC
:100DDC00F11BFC2E01300310F00DF10DFF3E031D35
:100DEC00F12E0130F4007408F507EE2E01300310DB
:100DFC00F70DF80DFF3E031DFD2E71087302031D48
:100E0C00092F70087202031C122F7008F20271086D
:100E1C00031CF303F302771401300310F10CF00CF4
:100E2C00FF3E031D132F0130F502031DFC2E760827
:100E3C000319252FF709F809F70A0319F80A780896
:100E4C00F101F1077708F001F0070800FA01FB0146
:100E5C00831603130514860188019F179F121F1216
:100E6C00831203131F083F3940389F00C3309F057E
:100E7C001F140830F900F90B412F831203139F1430
:100E8C009F18462F1E08FD01FD07831603131E082D
:100E9C00FC01FC077D08803AFF0080307F02031DB7
:100EAC00592FCC307C0203186A2F831203132008AD
:100EBC0088001430F0000030F1007D08F301F307D6
:100ECC007C08F201F207D62F7D08803AFF008130B2
:100EDC007F02031D732F98307C020318852F831219
:100EEC000313210888001430F0000030F1007C0856
:100EFC00343EF2007D080318013EFF3ED52F7D08DD
:100F0C00803AFF0082307F02031D8E2F64307C02FA
:100F1C000318A02F83120313220888001430F0004A
:100F2C000030F1007C08683EF2007D080318013E99
:100F3C00FE3ED52F7D08803AFF0083307F02031DD3
:100F4C00A92F30307C020318BB2F83120313230804
:100F5C0088001430F0000030F1007C089C3EF20058
:100F6C007D080318013EFD3ED52F7D08803AFF0019
:100F7C0083307F02031DC42FFF307C020318E92F3E
:100F8C0083120313240888001430F0000030F100A1
:100F9C007C08D03EF2007D080318013EFC3EF300B5
:100FAC000A128A11D1260A128A117108FB01FB0759
:100FBC007008FA01FA077A08203E840083130008AF
:100FCC0083120313EE2F83120313250888002008C5
:100FDC0086003F2F83132A30FD000630FE00B6300A
:100FEC00FF00203084000A128A11C42683010A12E1
:040FFC008A112C2FFB
:00000001FF
