:100000000A128A11FC2F00308A000408840A820731
:100010000034443461346E34693465346C342034D3
:100020004C346534793476346134003445346D347D
:10003000623465346234693464346F3473343A340E
:0200400000348A
:100ECA0038300A128A117C270A128A1106300A124D
:100EDA008A117C270A128A110C300A128A117C277D
:100EEA000A128A1101300A128A117C270800F300BB
:100EFA00730883120313860008108810081502303D
:100F0A00F2004530F100A930F000F00B8A2FF10B06
:100F1A008A2FF20B8A2F912F8312031308110800CC
:100F2A00F300730883120313860008148810081547
:100F3A000230F2004530F100A930F000F00BA32F87
:100F4A00F10BA32FF20BA32FAA2F8312031308115D
:100F5A000800F800F601F7017708803AF5008030BA
:100F6A007502031DBA2F7408760203180800760862
:100F7A00780784000A128A1103200A128A110A12B7
:100F8A008A1195270A128A110130F6070318F70AFF
:100F9A000030F707B12F83160313081088100811C1
:100FAA0086010A128A1165270A128A1180300A12EA
:100FBA008A117C270A128A110A30F9007908F4008A
:100FCA000E300A128A11AE270A128A11C0300A128A
:100FDA008A117C270A128A110D30F9007908F40067
:100FEA0001300A128A11AE270A128A11DB2F8301F5
:060FFA000A128A11D02F3B
:02400E00F7FFBA
:00000001FF
