:060000000A128A11EE2F26
:100D38003F3406345B344F3466346D347D340734C5
:100D48007F3467347E088A007F088200A6260A124C
:100D58008A118000840A04087D0603190034FF0AFA
:100D68000319FE0AAA2EF601F31FC12EF209F30990
:100D7800F20A0319F30AF601F60AF11FC82EF00960
:100D8800F109F00A0319F10A710870040319F52E24
:100D9800F501F50AF11BDC2E01300310F00DF10D01
:100DA800FF3E031DD12E0130F4007408F507CE2E46
:100DB80071087302031DE22E70087202031CEA2EEA
:100DC8007008F2027108031CF303F30201300310E8
:100DD800F10CF00CFF3E031DEB2E0130F502031D54
:100DE800DC2E76080319FD2EF209F309F20A03191D
:100DF800F30A7308F101F1077208F001F00708001F
:100E0800F601F11F0E2FF009F109F00A0319F10A92
:100E1800F601F60AF31F192FF209F309F20A03196A
:100E2800F30A0130F4007408F606F701F8017108B6
:100E380070040319502FF501F50AF11B2F2F01300B
:100E48000310F00DF10DFF3E031D242F0130F400B7
:100E58007408F507212F01300310F70DF80DFF3E38
:100E6800031D302F71087302031D3C2F7008720296
:100E7800031C452F7008F2027108031CF303F302E8
:100E8800771401300310F10CF00CFF3E031D462FC0
:100E98000130F502031D2F2F76080319582FF70983
:100EA800F809F70A0319F80A7808F101F107770831
:100EB800F001F007080083160313051483160317BF
:100EC80008108316031386018801932F64302E06B9
:100ED8002F04031D732FAE01AF01AC01AD012C0827
:100EE800203E84008313000888002A08203E8400DE
:100EF800000886000330FB008A30FA005630F900FB
:100F0800F90B842FFA0B842FFB0B842F8B2F0130C6
:100F180083120313AE070318AF0A0030AF070A3075
:100F2800F0000030F10083122F08F301F3072E08B8
:100F3800F201F2070A128A1104270A128A117108AB
:100F480083120313AD01AD077008AC01AC070A307A
:100F5800F0000030F1002F08F301F3072E08F2012A
:100F6800F2070A128A11B7260A128A117108831227
:100F78000313AB01AB077008AA01AA07051C6A2F67
:100F8800051C932F2F082E04031DCE2F6430AE00AE
:100F98000030AF002C08203E84008313000888002E
:100FA8002A08203E8400000886000330FB008A30AF
:100FB800FA005630F900F90BDF2FFA0BDF2FFB0B85
:100FC800DF2FE62FFF3083120313AE070318AF0A93
:100FD800FF30922FAE01AF0183132A30FD00063097
:100FE800FE009C30FF00203084000A128A11AA26D5
:080FF80083010A128A115F2F28
:02400E00F7FFBA
:00000001FF
