:060000000A128A11122809
:10000800FE00030EF3000408F4000A08F50083124A
:1000180003137F08F6000A128A1119280A128A1196
:10002800152883010A128A1174288B1C6728F70186
:10003800F8017808803AFF0080307F02031D2628E7
:1000480005307702031859288312031386100630E7
:10005800F2001330F100B130F000F00B3128F10B51
:100068003128F20B312838288312031386140630FE
:10007800F2001330F100B130F000F00B4128F10B21
:100088004128F20B412848280130F7070318F80ADD
:100098000030F8077808803AFF0080307F02031D9F
:1000A800572805307702031C28288B100630F200E9
:1000B8001330F100B130F000F00B6028F10B60282C
:1000C800F20B60286728760883120313FF0075086F
:1000D8008A0074088400730E8300FE0E7E0E0900E9
:1000E800013083160313860083160317091283163B
:1000F800031301178B170B168B10831203130615A6
:100108000630A2001330A100B130A000A00B8A284D
:10011800A10B8A28A20B8A2891288312031306119F
:100128000630A2001330A100B130A000A00B9A281D
:0C013800A10B9A28A20B9A28A12881286C
:00000001FF
