:060000000A128A11FC2F18
:100DD0008316031386013F3083120313860003300A
:100DE000F2008A30F1005630F000F00BF52EF10BD6
:100DF000F52EF20BF52EFC2E06308312031386001F
:100E00000330F2008A30F1005630F000F00B062F6C
:100E1000F10B062FF20B062F0D2F5B3083120313FD
:100E200086000330F2008A30F1005630F000F00BFB
:100E3000172FF10B172FF20B172F1E2F4F30831286
:100E4000031386000330F2008A30F1005630F000C0
:100E5000F00B282FF10B282FF20B282F2F2F6630A5
:100E60008312031386000330F2008A30F1005630FB
:100E7000F000F00B392FF10B392FF20B392F402FE7
:100E80006D308312031386000330F2008A30F100C4
:100E90005630F000F00B4A2FF10B4A2FF20B4A2F7D
:100EA000512F7D308312031386000330F2008A3005
:100EB000F1005630F000F00B5B2FF10B5B2FF20BC3
:100EC0005B2F622F07308312031386000330F2007A
:100ED0008A30F1005630F000F00B6C2FF10B6C2FC4
:100EE000F20B6C2F732F7F308312031386000330B5
:100EF000F2008A30F1005630F000F00B7D2FF10B3C
:100F00007D2FF20B7D2F842F6F3083120313860009
:100F10000330F2008A30F1005630F000F00B8E2FD3
:100F2000F10B8E2FF20B8E2F952F77308312031338
:100F300086000330F2008A30F1005630F000F00BEA
:100F40009F2FF10B9F2FF20B9F2FA62F7C30831228
:100F5000031386000330F2008A30F1005630F000AF
:100F6000F00BB02FF10BB02FF20BB02FB72F3930A1
:100F70008312031386000330F2008A30F1005630EA
:100F8000F000F00BC12FF10BC12FF20BC12FC82FB6
:100F90005E308312031386000330F2008A30F100C2
:100FA0005630F000F00BD22FF10BD22FF20BD22FD4
:100FB000D92F79308312031386000330F2008A3070
:100FC000F1005630F000F00BE32FF10BE32FF20BA2
:100FD000E32FEA2F71308312031386000330F200EF
:100FE0008A30F1005630F000F00BF42FF10BF42FA3
:100FF000F20BF42FFB2FEB2E83010A128A11E82E3D
:00000001FF
